02                                                                                                                                                               
128530426140901000000S30672394631                   11COMPLEMENTARIAS                                                                                            
22853042600122894014401409410657741 2022091400000137500S01  080020318087947Gomez Daniel Andres           000000000000          0000020220914 0000000000000000000 
22853042600123834014401409409892997 2022091400000137500S01  080023303232524GONZALES NANCY ELIZABET       000000000000          0000020220914 0000000000000000000 
22853042600124544014401209461791731 2022091400000357500S01  080023350079289Galeano Gastón Diego          000000000000          0000020220914 0000000000000000000 
22853042600125404014401409411133871 2022091400000137500S01  080020308848710Bedoya Marcelo Dario          000000000000          0000020220914 0000000000000000000 
22853042600126554014401409410898522 2022091400000110000S01  080020297300688Pinto Alfredo Gustavo         000000000000          0000020220914 0000000000000000000 
22853042600126734014401409411135165 2022091400000110000S01  080020338653477Rojas Guido Orlando           000000000000          0000020220914 0000000000000000000 
22853042600129134014401409479997183 2022091400000110000S01  080027330154417Rojas Daiana Vanesa           000000000000          0000020220914 0000000000000000000 
22853042600133314014401409460579631 2022091400000137500S01  080020348948106Chaves Ramon Emanuel          000000000000          0000020220914 0000000000000000000 
22853042600135434014401409472388346 2022091400000118750S01  080023343646052Pereyra Cristian Fabián       000000000000          0000020220914 0000000000000000000 
22853042600135434014401409472388346 2022091400000220000S01  080023343646052Pereyra Cristian Fabián       000000000000          0000020220914 0000000000000000000 
22853042600135964014401209462846331 2022091400000110000S01  080023309390309Schuquel Cristian Hernan      000000000000          0000020220914 0000000000000000000 
22853042600138694014401409473150869 2022091400000137500S01  080020354559847Silva Gustavo Ariel           000000000000          0000020220914 0000000000000000000 
22853042600144714014401409472125941 2022091400000220000S01  080023344133999Rodriguez Carlos Miguel       000000000000          0000020220914 0000000000000000000 
22853042600145684014401409487812928 2022091400000220000S01  080020364650419FAYON ALEJANDRO MAGNO         000000000000          0000020220914 0000000000000000000 
22853042600152764014401409477387429 2022091400000137500S01  080023385675739DallabridaLuis Gustavo        000000000000          0000020220914 0000000000000000000 
22853042600159904014401409479941304 2022091400000220000S01  080020354940788CAMARGO Diego Oscar           000000000000          0000020220914 0000000000000000000 
22853042600160004014401409485378998 2022091400000137500S01  080020322979259Casas Cristian Alejandro      000000000000          0000020220914 0000000000000000000 
22853042600165044014401409480628623 2022091400000137500S01  080027397246804SilveroNadia Magali           000000000000          0000020220914 0000000000000000000 
22853042600169584014401409486836415 2022091400000220000S01  080020440139273Rios Lucas Sebasin            000000000000          0000020220914 0000000000000000000 
22853042600169804014401409486836297 2022091400000220000S01  080020381982794SajGabriel Omar               000000000000          0000020220914 0000000000000000000 
22853042600170354014401409486834857 2022091400000137500S01  080020381982794Villalba Miguel Alberto       000000000000          0000020220914 0000000000000000000 
22853042600174674014401409492015640 2022091400000220000S01  080020387785176Kotowski Marcos Esteban       000000000000          0000020220914 0000000000000000000 
22853042600175174014401409492015581 2022091400000110000S01  080020385675470Paniagua Jose Ignacio         000000000000          0000020220914 0000000000000000000 
22853042600176904014401409492041320 2022091400000137500S01  080020390453427LopezGonzalo Cesar Ariel      000000000000          0000020220914 0000000000000000000 
22853042600179814014405409499875759 2022091400000118750S01  080020364652675Llanes Jonathan Damian        000000000000          0000020220914 0000000000000000000 
22853042600179814014405409499875759 2022091400000577500S01  080020364652675Llanes Jonathan Damian        000000000000          0000020220914 0000000000000000000 
22853042600180494014405409499875889 2022091400000110000S01  080023385673329Schwab Daniel Maximiliano     000000000000          0000020220914 0000000000000000000 
22853042600181504014405409499876150 2022091400000137500S01  080020385673052FAYONGUSTAVO IVAN             000000000000          0000020220914 0000000000000000000 
22853042600181794014405409499876310 2022091400000110000S01  080023397246299GOSSLER JORGE ANIBAL          000000000000          0000020220914 0000000000000000000 
22853042600190534014402109529105739 2022091400000357500S01  080020401967630Almada Denis Fabian           000000000000          0000020220914 0000000000000000000 
22853042600191634014402109529106723 2022091400000110000S01  080020403422542Cruzate Cristian Ezequiel     000000000000          0000020220914 0000000000000000000 
22853042600191964014403709529107023 2022091400000220000S01  080020398209924Duarte Juan Gabriel           000000000000          0000020220914 0000000000000000000 
22853042600083794014401409476147312 2022091400000110000S01  080020239340920López Sergio                  000000000000          0000020220914 0000000000000000000 
22853042600097374014401409409353603 2022091400000220000S01  080020292153059Abalo Cristhian Daniel        000000000000          0000020220914 0000000000000000000 
22853042600102054014401409409360946 2022091400000220000S01  080020301106816Gomez Omar Fernando           000000000000          0000020220914 0000000000000000000 
22853042600102394014401409400158599 2022091400000110000S01  080027264772260Ortigoza Pamela Gissell       000000000000          0000020220914 0000000000000000000 
22853042600104444014401409400938494 2022091400000095000S01  080020294410474Galeano Aldo Basilio          000000000000          0000020220914 0000000000000000000 
22853042600104444014401409400938494 2022091400000440000S01  080020294410474Galeano Aldo Basilio          000000000000          0000020220914 0000000000000000000 
22853042600110314014401409402680500 2022091400000137500S01  080020321822127Flores Ricardo Daniel         000000000000          0000020220914 0000000000000000000 
22853042600132594014401409460582644 2022091400000137500S01  080023344234787Acuña Carlos Adrian           000000000000          0000020220914 0000000000000000000 
22853042600088514014401209460560509 2022091400000110000S01  080020223350365Dañeleski Juan Carlos         000000000000          0000020220914 0000000000000000000 
22853042600105524014401409409356851 2022091400000137500S01  080020301312076Morinigo Gustavo Gabriel      000000000000          0000020220914 0000000000000000000 
22853042600112164014401409409362881 2022091400000220000S01  080020316980539Martinez Angel Marcel         000000000000          0000020220914 0000000000000000000 
22853042600113024014401409403050463 2022091400000357500S01  080027323049640Zalazar Silvina Noelia        000000000000          0000020220914 0000000000000000000 
22853042600117734014401409409355779 2022091400000220000S01  080020298542243Correa Alberto Martín         000000000000          0000020220914 0000000000000000000 
22853042600131254014401409459674107 2022091400000357500S01  080020310915301Fáez Raúl enrique             000000000000          0000020220914 0000000000000000000 
